:1000000001308A000D290000FF00030E8301A100CA
:100010007F08A0000A08A7008A01A00E0408A20019
:100020007708A3007808A4007908A5007A08A6003C
:10003000831383128B1E1E280B194F28220884005D
:100040002308F7002408F8002508F9002608FA001C
:1000500027088A00210E8300FF0E7F0E09000A1078
:100060008A100A11820728340C34013406340A102D
:100070008A100A1182070C3445346A3465346334BB
:100080007534743461346E3464346F340A345434E7
:100090006134723465346134203432340034A90A56
:1000A000280B5428A8015528A80A81010B118A1190
:1000B0001E282C3084008313000803196D2801309A
:1000C000F800F701F70B6228F80B61284A30F700B7
:1000D000F70B68286B28800B5F280800330EF03977
:1000E000F7000F3006057704860000000614782814
:1000F000061008008610F030660006150000061491
:1001000000000608060E0F39B300061000000614A2
:1001100000000608060E0F39B20006100030660017
:10012000330EF700F030F70577083204F80078084E
:10013000B200B21B7B28301C8610301886140000D9
:10014000061100000610310EB2000F30B205320861
:10015000B3006E2031080F39B200B3006E200800E2
:10016000003066008610061106100F30AC005920D2
:100170000130AA002A08033C031CC6280330B30040
:100180006E200530AC005920AA0ABA280230B3000C
:100190006E20AA012A08033C031CD7282A082F2016
:1001A000AB00B0012B08B1007A20AA0ACA28262980
:1001B0002B080C3A0319E328063A0319EB28023AF4
:1001C000031901290629B0010130B1007A2002305B
:1001D000AC0059200C290130AC000230AD002D0BD1
:1001E000F228F5284030AE00F628AE0101302C028E
:1001F000AE072E088038AF00B0012F08B1007A207A
:100200000C29B0011030B1007A200C290130B00067
:100210002B08B1007A200C294129840183131F3057
:10022000830583168E158312A801A90107309F004C
:1002300000306500660083160108C0390738810068
:10024000831281018B16C0308B04B0282808031953
:100250002D29013A0319382943292908093C031D8E
:10026000372983168611083083128606A90144298E
:10027000AA012A083720003803194229AA0AAB002C
:0C028000D8283929442944292629630084
:02400E00503F21
:00000001FF
;PIC16F627A
;CRC=C105  CREATED="08-dic.-17 22:58"
